:10000000D2C6F6C6F5C6F4C6F3C6F2C6F1C6F0C649
:10001000EFC6EEC6EDC6ECC6EBC6EAC6E9C6000002
:10002000040040000800007CFE8282FE7C00008804
:100030008CFEFE8080000084C6E2B29E8C000044EC
:10004000C68292FE6C000030382CA6FEFE80005E58
:10005000DE9292F26200007CFE9292F66400000250
:1000600002C2F23E0E00006CFE9292FE6C00004C4A
:10007000DE9292FE7C00FF8F070305058EFF005580
:100080002A552A552A55FF7F0171F1FBFFFF000019
:100090006C8282826C00000000000000EE00000014
:1000A000609292920C000000009292926C0000000C
:1000B0000E101010EE0000000C92929260000000F2
:1000C0006C9292926000000000020202EC000000BC
:1000D0006C9292926C0000000C9292926C00000064
:1000E0000000407F033C603C037F40007D007C04B7
:1000F000047C0038545454580048547424000000C0
:1001000000000000000000000000000000000000EF
:1001100000000000000000000000000000000000DF
:10012000000000000000000000000000008000004F
:1001300000000000000000000000000000000000BF
:10014000000000000101017F0101007D007F0038F7
:100150005454545800485474240000000000000017
:10016000000000000000000000000000000000008F
:10017000000000000000000000000000000000007F
:10018000000000000000000000000000000000006F
:10019000000000000000000000000000000000005F
:1001A000000000107CC682828200FF00FA00708886
:1001B000888800FF3048800090A8E84800000000D0
:1001C000000000000000000000000000000000002F
:1001D0000000000000000000000000000000BFBFA1
:1001E000BFBFAE0180408320BFA300C0AA00E0A92A
:1001F00000C0A30020BFA9AD013F4182400020A163
:10020000003E8241003EA1017F068101077F001070
:100210003E424121FEA1077F02010702187E438171
:1002200041013F408101007F810101003F82400088
:100230007FA2047F00187E438141013F408101007D
:100240007F810102007E07A1003E8241003EA101A4
:100250007F068101077F00404E4A493B02B4BFA39D
:100260008204010201BFBFB6BFBFBFBFA607010620
:100270001CB0E01C0701A100F0820800F0A100F80A
:10028000A200F8A507705048D810C0F01881080DDA
:10029000F80008788000E01800F0D0486830A1002D
:1002A000F082080118FFA4810800FE81080200FF07
:1002B00010810800F0A104F0D0486830A501FF01CA
:1002C000810206040CF000C0F018810807F800183D
:1002D00070C000C038A100FFA7A8010203A500015B
:1002E00082020001A1000182020003A48302000136
:1002F000A100038202010102A1010103A200018306
:10030000020201000182028103A60003A20003A2EF
:100310000003A1000183020001A400018302000187
:10032000A20003820205010200201D03A30002A710
:10033000BFBFBFBFB500F08510A10090A101800034
:100340008280A2838000F0A68380A200F0A200F049
:10035000A601E0F0A202E0F080A20090A1018000DE
:100360008280A38180A48180A100F0B3B5003F8486
:1003700001A1013F03A1013F03A1003FA1001F8292
:100380002001313FA4020C3F218120011F20A10048
:100390003FA2003FA50C3C03011E301C01001F3092
:1003A000003F03A1013F03A1003FA10D1F2D242603
:1003B0002310202725241D01002FB3A28180834014
:1003C000A100C0B30080A800808340A100C0A200AB
:1003D00040A800C0AE00C0A500C0BFA8A1014083D6
:1003E0008284014C78A101FF04810200FCA1007C01
:1003F0008282007CA104FE04020E06810200FF81BD
:1004000002A4017E8382800040A200FFA101FC0EB5
:10041000A1017884818200C6A105FF30183CC68006
:10042000A3016640A3011F60838001601FA101FE3C
:100430000C810200FEA1017884818200C6A1007CAB
:100440008282137C00021E60C03806007CB4929A3F
:100450008C4000FE04020E8004BFBFBFBFA100FF9E
:10046000A500F0820800F0A101F830810804F8002E
:1004700080F010810800F0A502F80C028301A100B1
:10048000FFA101F039A101E01081080018A104FFCB
:10049000C060F018A50098A5010E1281110131E18C
:1004A000A105F0D048683000810800FE8108A40052
:1004B000FF84110001A104FF00C0F018810804F8B6
:1004C0000080F010810800F0A4A100038302A100C5
:1004D0000182020001A10003A20003A100218122E8
:1004E00001110FA5000183020001A20003A1000376
:1004F000A2000182020003A10003A2010302A48161
:1005000001A3000183028101A1000183020001A176
:100510000003A60003A70003A10003820203010257
:100520000021812201110FA4BFBFBFBFBC02C0F8D0
:10053000FC81CC814C000C81C0816003E0C000C014
:1005400081E08160070060E0800080E060A507C076
:10055000F0381C0C80FC7C826C01CC04A200C081B1
:10056000F005F8FCFAF2F4C0A3020CFCF8BFA0BC42
:10057000810F830C0200070F820C030F04000C8113
:100580000D080F060040733F0F0301A6023F7F6076
:10059000A10004830C010703A300018107820F81DE
:1005A000070001A1044060301F0FBFA0BD01C0F8CB
:1005B00081FC0200C07081FC030080C06082E00208
:1005C0000080C0826008E0FC0C00E06C00C0E0A18C
:1005D00003C0E000C081E0006081E0006081E0A62F
:1005E00009C0F0381C0C0018F8FC0CA202C0F0186E
:1005F000820C01FC70A300C081F005F8FCFAF2F453
:10060000C0A2020C3CF8A5BC070F0700030F0703AC
:1006100000810F0206070F810D040C0400070E81F4
:100620000C030E0F0100810FA1810F810C050F0338
:10063000000F0700810FA1810FA6023F7F60A1017B
:10064000080C810FA301070F820C010703A400010E
:100650008107820F81070601004060301E0FA5BC94
:100660000280F8FC84C001FC1C81C0816004E0C0F1
:1006700000C0E0816081E00180C0826002E0FC0C8B
:10068000A509C0F0381C0C0018F8FC0CA202C0FC34
:100690007C826C01EC04A200C081F005F8FCFAF247
:1006A000F4C0A3030C7CF840B4BC010F07A4810F75
:1006B00001070F820C040F04000F03A301070F8230
:1006C0000C000FA7023F7F60A103080C0F0DA300D1
:1006D00004830C010703A300018107820F81070037
:1006E00001A1044060301E0FB5BE0218D8F8821870
:1006F000008084C001008083C0828082C0028000AC
:100700008084C00000818082C00080A50FC0F038C6
:100710001C0C0010988CCC6C7800C0F018820C0176
:10072000F870A200C081F005F8FCFAF2F4C0A30250
:100730000C3CF8ABBD011018811F811804001F0785
:100740000100811F010019811B041E0C0E1F19815D
:10075000180F1F09001F0F01001F0F000F1F1A1B8A
:100760001909A5023F7F60A1010E0F810D810CA127
:1007700001070F820C010703A300018107820F818B
:10078000070001A1044060301E0FABA30B0103075B
:100790000F1E3C78F0E0C0800181030007810E81CC
:1007A0001C8138817081E004C08103070CA304031D
:1007B0000F3FFCE0A20B0103070F1E1C3C78F0E08A
:1007C000C080A102010307810F02070301A101807C
:1007D000C081E0017038811C010E0781030001A374
:1007E00001E0FCC1013F03A382038301818184C135
:1007F00000C081E081608230821804080C8CC4C67D
:100800008062017E78817082600040A30A01070F38
:100810001F3E7CF8F0E0C080A481010003810781C5
:100820000E001C81380770E0C0C19FFFF8C0A80609
:100830000103070F1E3CF881F005787C3C1E0E0773
:1008400081030001AA01C0F8C202E3F1708178813E
:100850003C811C001E810E000F8207820382010072
:100860008081C081E007703038181C0E06038101BA
:10087000008080C088C089E0096163676F7F7E78EF
:10088000706040AA810181038107010E08AD00015B
:10089000B400038201A9004081E081F001F8988151
:1008A0001C810E810700038101A181200630707830
:1008B0007CFCFEE781C780C382E181C18181008029
:1008C000B803C0F0F878833802F8F0E0A200C081E5
:1008D000E00070853881F000E0A100C081E0007088
:1008E000853881F000E0A201C0F081F800E0A101AC
:1008F00080E081F800F0AB82018103810702060EDF
:100900000C811C00188138827001F0E081C0818068
:1009100081018180810181038207010F0E811E0107
:100920001C3C82388170006081E081C08180A4001D
:10093000C0C100DF83CE08EFFF7F39003C7FFFE3BB
:1009400084C009E0F07C3F0F033C7FFFE384C00BD1
:10095000E0F07C3F0F03E0F8FE1F033FC103F83EC9
:100960001F03C20080AF8D8000C082C182C3018797
:100970000F811F033F3E3CFC82F8017010A50780E9
:10098000E0F0FC7F1F0703A48701A78501A885016C
:10099000A58101A38101A48101A70206070F811F80
:1009A000033363C38386030201416181E181A18135
:1009B000218460090301C1E0F0FC3E0F0301A4069D
:1009C00080F0F87E1F0F03AF0180C0B08180B205B8
:1009D00080C0E0F070E081C08280B10701030204B2
:1009E0000C181030816002C0808181010307060C61
:1009F0001C8138047E3F0F0703A40780E0F8FC3F0A
:100A00000F0301A2828081C0816005301018988C8C
:100A10000C810600C3C10003A80D80C0E0F0783C43
:100A20001E0F0787070E3C7881F002E0C080A50604
:100A300080E0781E0F0301A10280C0E181C381C75D
:100A4000008F818E000C811C811881300020816014
:100A500081C08180AA000181030006810C01183049
:100A60008160AF0280C0208310A18280A20180003B
:100A70008280A38180A20180008180A28380000007
:100A8000818000E08180010080A20080A200F0A2AD
:100A900083800000818000E08180A10090A282809C
:100AA000A20180008280A38180A100F0B0AF001F6E
:100AB00083200010A1001F8220001FA1013F03A17D
:100AC000073F00081F212010FFA1073F010003017D
:100AD0000C3F218120011F20A1003FA2001F822086
:100AE000003FA2043F000C3F218120011F20A100F4
:100AF0003FA2013F03A1001F8220001FA1013F036D
:100B0000A1093F00202725241D01002FB0AF8240FE
:100B100000C083400100C0AB8102018201BFB5006B
:100B2000C0A200C0BAB2011F60A301FF0481020489
:100B3000FC0030FC868182017E80810200FF810200
:100B4000A4067EE0380EF0E01EA10230FC86818211
:100B5000007E8180049C94927604A40EFE04020E12
:100B600004007CB4929A8C4030FC868182017E80A5
:100B7000A100FFA207FF00061C70C0300EB3BFBF6C
:100B8000BFA6010807B6B205C0705C467EC0A10DC5
:100B9000033CC080701E3FC000E01C0700FF8411B2
:100BA0000001A1010E1281110131E1A102F806023A
:100BB00082010181FEA108C03E1FE000C01E0FF8A7
:100BC000A100FF84110001A400FFA500FFA500FF04
:100BD000B6B10003A40003A38103A28103A3000113
:100BE0008402A1000183028101A2000183020001AD
:100BF000A20003A102010301A10301030001840279
:100C0000A50002A50002A50002B6BFBFBFBFA60097
:100C1000608FF0017060A1006081F00070BFBFBF05
:100C2000ACC3A801C0F881FC0018A200F882FC0344
:100C300078383C1C81FC03F820003881FC02F8E085
:100C400080A10680E0F0F87C3C08A200C09FE09103
:100C5000E000C0AAAB00FCC1003FA80070C1017F4A
:100C600001A10070C1027F0701A200FEC1007FA3A5
:100C700001039FC105FE7E1F0F0301A500019F0315
:100C80008D03C4AAAA00E082F000E0BE05707C7F5C
:100C90003F0F03BFBAC4AAAAC4BF8180A78280A79E
:100CA0008280BFA7C4AAAAC4BB0280F0FEC3A2026E
:100CB00080E0FCC3A504C0E3E7C703A100C082E055
:100CC00081C083E000C0A3008081C085E001C080B6
:100CD000A289E081E10061ABAA003F837F907C00A4
:100CE00038A606C0F0FEFF1F0700C206F0F8FE3F60
:100CF0000F0300C3A20180FEC1000FA10180F8C153
:100D0000023F0F03810100F0C20201F8FEC106BBE1
:100D1000391D1C1E8E8F81870001A20A80C0E0F061
:100D2000F87C3E0F070301ADBFA70006810F000747
:100D3000A482070003A40003820FA200038107001E
:100D400003A2000381070003A482070003A101019D
:100D500003860781030001A101060F89070002AD88
:100D6000000000C02010080808081020C000000083
:100D70000000000304081010101008040300000015
:100D80000C0E1EFC78F0E8C8E8F8783CDE1F0F0770
:100D90007070783F1E0F171313170F1E3F78707077
:100DA000050A0F14AE0D11241FBECFE5D2E0DEBF41
:100DB000CDBF10E0A0E6B0E0E6EDFDE102C0059099
:100DC0000D92A836B107D9F721E0A8E6B0E001C03E
:100DD0001D92AE35B207E1F716E0C3EDD6E003C0D1
:100DE0002197FE01F0D7C23DD107D1F79DD2F1C7BF
:100DF00007C987FD1BC0282F880F330B8091F60091
:100E000090E02817390794F467FD10C0062E000CF7
:100E1000770B5091F7005617170641F03CF0C2D7F8
:100E200020513F4F280F391FF9014687089587FD4C
:100E30001CC0282F880F330B8091F60090E02817F4
:100E400039079CF467FD11C0062E000C770B40910A
:100E5000F7004617170649F044F0A4D720513F4F3A
:100E6000280F391FF9018685089580E00895E82F3D
:100E70008091F6006091F70070E090E093D7AC01AC
:100E800090E080E0292F30E02417350754F42051FA
:100E90003F4FD9011E962C912E2309F08F5F9F5F43
:100EA000F1CF08958F7787B987B187B9369A369988
:100EB000FECF84B195B1089583E8F4DF9C012E5EE6
:100EC000324081E0283C310508F080E0089583E855
:100ED000E9DF9C01255F314081E0293F310508F0C1
:100EE00080E00895A0E6B0E0FB012D9190E3821729
:100EF00018F09F5F821BFBCF91939C919111F5CFCE
:100F0000089528E0C29887FDC09A87FFC098C29ACA
:100F1000880F2A95B9F7C298C09AB898C29AC29811
:100F2000B89AC0980895C098C29AC09A0895C09A75
:100F3000C29AC098C2980895CF93C82FF8DF88E767
:100F4000E0DF80E0DEDF8C2F8770806BDADF80E00F
:100F5000D8DF80E1D6DFE7DFEADF88E7D2DF80E4B1
:100F6000CF91CFCF20E08111C49A982F9095392F3F
:100F7000315028F045E04A95F1F70000F9CFC498C8
:100F8000915028F035E03A95F1F70000F9CF2F5F46
:100F90006213E9CF089564E18CE3E4DF64E186E95C
:100FA000E1CFE8E6F0E080E8DF011D928A95E9F7FD
:100FB00008952F923F924F925F926F927F928F92FD
:100FC0009F92AF92BF92CF92DF92EF92FF920F93D8
:100FD0001F93CF93DF9300D000D0CDB7DEB7282E7C
:100FE0002091F0003091F1003C832B83DADF80E226
:100FF0003EDF6DE670E076DF80E439DF69E770E0C0
:1010000071DF65E870E08091F4006CDF81E0909121
:10101000E8009C3008F080E081958A83B12CA12CF7
:10102000D12CC12C312C2194832D86DF8B819C8186
:101030008430910509F4FEC00CF045C097FD4EC008
:10104000311010C02B813C812230310509F479C068
:101050000CF066C02115310509F46DC02130310551
:1010600009F46CC08091F0009091F100712C612C1A
:10107000029721F4E9EE6E2EE0E07E2E88E690E005
:1010800040E850E098012F5F3F4FF801649167FFFF
:101090006EC0762F707609F464C066FB772770F90E
:1010A00071956F71FF24F394F60EB82FFC017193C4
:1010B000AE2FAB1BAF15D8F370E06F5F7F4F860F7D
:1010C000971F890169C0EB81FC81E630F10509F4C5
:1010D000B1C00CF4B5CF379709F4B2CF24DF339405
:1010E0003FEFC31AD30A80E2A80EB11C98E0391270
:1010F0009BCF0F900F900F900F90DF91CF911F918A
:101100000F91FF90EF90DF90CF90BF90AF909F90A6
:101110008F907F906F905F904F903F902F900895A9
:101120008B819C818530910579F08730910579F02C
:10113000039709F097CF0EE01CE094CF04E313E08F
:1011400091CF0CE215E08ECF0BE817E08BCF8091AA
:10115000EF000EED11E0833008F484CF02E61AE0D0
:1011600081CF0E5F1F4FF901749198019ACFFF2430
:10117000F394F60EF901182FDC0174917D933196EA
:101180007A2F711B7F15C8F370E06F5F7F4F890165
:10119000060F171F860F971F4F19510909F072CFBD
:1011A00026015594479478E6872E70E0972EF12C0F
:1011B000E12CF32DF170F9839E2D20E8E216F10465
:1011C00009F48CCFF40181914F01822561147104DF
:1011D00029F12091EF00E091E900F091EA00241557
:1011E000150421F0E091EB00F091EC004091EE004D
:1011F0009417F0F02091ED0050E030E0BA01620F5A
:10120000731FE616F706A4F4998191110CC097019B
:10121000241B350BE20FF31FE4918E2B72DEEFEFF0
:10122000EE1AFE0AC9CF241B350B2E0D3F1DF2CF3F
:10123000E0E0F3CFF12CE12C632DC70153E095954D
:1012400087955A95E1F7F3DDEE2DE770F0E085FF25
:1012500047C0EA57FF4FE49187FF02C0FA81EF27AA
:10126000822D8E274EDE2FEFE21AF20A30E6E316C9
:10127000F10411F7F12CE12CC50182529F4F3C0182
:10128000C601880F991F880F991FFC01E859FF4F6D
:101290004F01F301EE0DFF1D8491F70123E0F59559
:1012A000E7952A95E1F7E80DF91DE081EE2371F04D
:1012B000E053FF0B93E0EE0FFF1F9A95E1F79E2D91
:1012C0009770E90FF11DE257FF4FE4918E2B19DE65
:1012D000FFEFEF1AFF0A20E2E216F104D1F6FECE8C
:1012E00086FF03C0E258FF4FB6CF282F2F7720315B
:1012F00019F4EA58FF4FAFCF9FEF920F993058F48F
:1013000030E043E0220F331F4A95E1F7E20FF31F6D
:10131000EA5DFF4FA0CFE25EFF4F9DCF86B386957B
:10132000817091E089270895CF93DF9300D000D09A
:10133000CDB7DEB783E08ABD83BF789480E48CBDEF
:101340008FEF8DBD87EC80BF87E886B987B3857D39
:1013500087BBBC9ABA9AB89AC29AC09A8FE39CE9A2
:101360000197F1F700C00000E2DD88E7CADD80E008
:10137000C8DD8EEAC6DD85EDC4DD80E8C2DD88EA21
:10138000C0DD8FE3BEDD83EDBCDD80E0BADD80E44F
:10139000B8DD8DE8B6DD84E1B4DD81EAB2DD88EC4C
:1013A000B0DD8AEDAEDD82E1ACDD81E8AADD8FEC57
:1013B000A8DD89EDA6DD81EFA4DD8BEDA2DD80E463
:1013C000A0DD80E29EDD80E09CDD8FEA9ADDABDD72
:1013D000AFE3BCE91197F1F700C0000019828981E1
:1013E000ABDD1A8280E08DDDBA81BF5FBA83B03891
:1013F000C9F799DD29812F5F2983283081F7109261
:10140000F1001092F0001B8245E0842E912C809117
:10141000FA009091FB00A091FC00B091FD0020919A
:10142000F0003091F1000196A11DB11D2830310569
:10143000D0F7F901E35EF54F0994B1C0B0C0EAC03E
:1014400069C109C0DAC2EFCF44C389818B83DFCF82
:1014500099819B83DCCF8093FA009093FB00A0934B
:10146000FC00B093FD008091F0009091F1008D7F21
:10147000059769F28091FA009091FB00A091FC0021
:10148000B091FD000196A11DB11D8093FA009093CB
:10149000FB00A093FC00B093FD008091F8008983CD
:1014A0001091F90080E8FEDC8E5E9240883C910548
:1014B00008F0F0C19981992309F4ECC19150998306
:1014C00001E080E8EFDC855F9140893F910558F4A9
:1014D0008091F6008150990BA981A81719061CF478
:1014E000AF5FA98301E0F3DC882321F0112311F021
:1014F0001150082FE1DC882349F02091F70021509A
:10150000330B1217130614F41F5F082F07DFA82EE2
:10151000882309F446C2F12CBFEF21EE84E0B150DC
:1015200020408040E1F700C000009FEFF912F394E3
:10153000F5DE8111F1CF612F898179DC082F80746C
:10154000A3E0AF1508F0A8C1882329F040E24027A6
:10155000612F89814EDC8091E8008F5F883108F02F
:101560002BC28093E80099819093F8001093F900C2
:101570002091F60030E08091F70090E0B90112D49C
:10158000AC0190E0E92FF0E0E417F5070CF017C28A
:10159000E051FF4F86858F7786879F5FF3CF8093DB
:1015A000FA009093FB00A093FC00B093FD00AB8188
:1015B000AF5FA983BB818B2FBB0F990B892F881F2E
:1015C0008827881F8093F0001092F10080E0F1DC02
:1015D000A5DE882309F439CF82E090E09093F100F2
:1015E0008093F0009BDE882309F432CF8091FA00CB
:1015F0009091FB00A091FC00B091FD000196A11D0F
:10160000B11D8093FA009093FB00A093FC00B0936F
:10161000FD00E8CF8093FA009093FB00A093FC00BC
:10162000B093FD0021E0298352DC8A838823A9F14D
:101630008091EF00882319F081508093EF003CDC0B
:10164000882371F18091EF00833018F48F5F8093CD
:10165000EF00A1DC80E0ADDC80E824DC8E5E92400F
:10166000883C9105C8F380E81DDC855F9140893F87
:10167000910590F32CDC8111EFCF1EDC8111ECCFB2
:101680004DDE8111E9CFAFEFB1EE24E0A150B040C3
:101690002040E1F700C0000006C089818A83CFCFD7
:1016A0009A819111D6CF8091FA009091FB00A09180
:1016B000FC00B091FD000196A11DB11D8093FA00C0
:1016C0009093FB00A093FC00B093FD0027DE89837C
:1016D000882309F4A9CF22DE8823A1F08091FA00A3
:1016E0009091FB00A091FC00B091FD000196A11D1E
:1016F000B11D8093FA009093FB00A093FC00B0937F
:10170000FD00E9CF83E090E09093F1008093F0003A
:101710001B827DCE8093FA009093FB00A093FC0087
:10172000B093FD0038DCE091EF00F0E0E056F24FBE
:10173000849189831092F3001092F5001092F400C6
:10174000EEEFF0E080E6DF011D928A95E9F7B981BE
:10175000B093F2008091FA009091FB00A091FC0000
:10176000B091FD00009729F0BC01CD018827992791
:10177000B9D210E12981215029832F3F09F04AC0B5
:101780008091F7008983C82ED12C9091F6009A831E
:10179000E92EF12C33243A9432E0732E2EEF222ED0
:1017A000270C822D022C000C990B8C159D050CF03A
:1017B0004EC0B701F7D25C011C82AC810A2F0A2E01
:1017C000000C110B0E151F050CF052C0622D8A2F54
:1017D0002EDB8031D9F0532C612C44244A94652DA2
:1017E0008C81840D24DB84FD63944394B2E04B121E
:1017F000F6CF53947510F1CF662041F00A0D1B1DF2
:10180000F801E051FF4F8685682A66862C812F5F9C
:101810002C83D3CF8091F6006091F70070E090E0C8
:10182000C1D27C0160E0892B31F00ED29701FF0C10
:10183000440B550B79D2A62FB0E0A051BF4FFD014C
:101840003E961E968C918111E5CF108393CFC601F1
:10185000B701A8D2AC0190E0E92FF0E0E417F5075A
:1018600054F4E051FF4F2685206426879F5FF4CF14
:101870007394339493CF8A8186958093F8008981FD
:1018800086958093F90084E090E09093F100809336
:10189000F000BDCD00E015CE882309F46FC0809123
:1018A000F4009091F50001969093F5008093F40078
:1018B000402F4F79612F89819CDA04FD6DC064E16E
:1018C00084E650DB64E18CE34DDB712CC12C20916C
:1018D000F7008C2D0C2C000C990B2817190609F019
:1018E0000CF44AC0B12C92E0592E5C0C2091F60009
:1018F0008B2D0B2C000C990B28171906D9F1D4F15C
:101900006C2D8B2D94DA8F7799F50FEF0C0D82E00B
:10191000682E6B0CDD24DA94DB0CE02E002E000C1C
:10192000FF08D7FC1FC02091F6008D2D0D2C000C58
:10193000990B28171906B1F0ACF007FD13C0809180
:10194000F7008E151F0471F06CF0602F8D2D6FDA8B
:1019500086FF08C084FD06C0482F4F71602F8D2D73
:1019600048DA7A2CD3946D10DCCF0F5F5012D2CFAF
:10197000B394BCCFC394ABCF7110A1CF80E477DA1E
:101980009091F200981708F4E6CD87E090E09093EC
:10199000F1008093F000DFCD9092F1008092F00092
:1019A000DACD002309F4D7CD64E18CE3DBDA64E11E
:1019B00084E1D8DAA02ECFCD1092E800D4CD812FCB
:1019C00090E0B901EFD1A9818A0F911DFC01E0518E
:1019D000FF4F86858068868780E0EBDAAA2009F4CD
:1019E00042CD1092E800BFEF21EE84E0B1502040DC
:1019F0008040E1F700C0000036CD8093FA0090935C
:101A0000FB00A093FC00B093FD0098EC99836AE082
:101A10008981A8DA6AE089818E5CA4DAA981A5505F
:101A2000A983A111F4CF198281E0B981B11180E0BD
:101A3000C0DA2FEF81EE94E0215080409040E1F732
:101A400000C00000A981AF5FA983AA3069F719829D
:101A50008091F700B981B817A8F410E08091F600E2
:101A6000181760F46981812FE2D984FF05C0482FDF
:101A70004F7B6981812FBDD91F5FF0CF29812F5FF7
:101A80002983E6CF86E090E09093F1008093F00008
:101A900045DC81110CC081E08CDA8091E8008F5F19
:101AA0008093E8008831A0F31092E800F1CF36DC93
:101AB0008111FDCF8FEF91EEA4E081509040A040C6
:101AC000E1F700C0000067DA1092F1001092F00018
:101AD0009ECC8093FA009093FB00A093FC00B093FF
:101AE000FD0080E066DA19826AE089813BDA6AE00B
:101AF00089818E5C37DAB981BB5FB983B83CA1F7C5
:101B00000DDC811114C08091FA009091FB00A0912E
:101B1000FC00B091FD000196A11DB11D8093FA005B
:101B20009093FB00A093FC00B093FD00E9CFF6DB9F
:101B3000882349F28091FA009091FB00A091FC006B
:101B4000B091FD000196A11DB11D8093FA00909304
:101B5000FB00A093FC00B093FD00E9CFE0EFF0E0C4
:101B600012821382158214828CE0868388E0878338
:101B700086E0808794E09187128613861486158606
:101B800011821082EEEFF0E090E6DF011D929A954F
:101B9000E9F7E9EEF0E020E83DE03183208320E63C
:101BA0003DE03383228390E19483858381E08683C3
:101BB00008958F929F92AF92BF92CF92DF92EF9251
:101BC000FF92CF93DF93EC01688179818A819B81B9
:101BD000611571058105910521F464E279ED8BE5CC
:101BE00097E02DE133EF41E050E09ED049015A01EA
:101BF00027EA31E440E050E07ED06B017C012CEE1E
:101C000034EF4FEF5FEFC501B40175D0C60ED71E9C
:101C1000E81EF91EF7FE06C081E0C81AD108E108E7
:101C200080E8F80AC882D982EA82FB82C701B6013D
:101C30009F77DF91CF91FF90EF90DF90CF90BF9093
:101C4000AF909F908F9008958F929F92AF92BF9286
:101C5000CF92DF92EF92FF926091630070916400E7
:101C6000809165009091660061157105810591056F
:101C700021F464E279ED8BE597E02DE133EF41E06B
:101C800050E052D049015A0127EA31E440E050E0E7
:101C900032D06B017C012CEE34EF4FEF5FEFC501CA
:101CA000B40129D0C60ED71EE81EF91EF7FE06C0E5
:101CB00081E0C81AD108E10880E8F80AC092630000
:101CC000D0926400E0926500F0926600C701B60110
:101CD0009F77FF90EF90DF90CF90BF90AF909F9055
:101CE0008F90089560936300709364008093650003
:101CF000909366000895EE27FF27AA27BB2708C008
:101D0000A20FB31FE41FF51F220F331F441F551FDF
:101D1000969587957795679598F37040A9F7009702
:101D200099F7BD01CF010895052E97FB16F4009495
:101D30000FD057FD05D014D007FC02D046F408C0E0
:101D400050954095309521953F4F4F4F5F4F0895E7
:101D500090958095709561957F4F8F4F9F4F089517
:101D6000A1E21A2EAA1BBB1BFD010DC0AA1FBB1F9F
:101D7000EE1FFF1FA217B307E407F50720F0A21B11
:101D8000B30BE40BF50B661F771F881F991F1A947E
:101D900069F760957095809590959B01AC01BD01A8
:101DA000CF0108950024552704C0080E591F880F3D
:101DB000991F009729F076956795B8F37105B9F7E3
:101DC000802D952F0895EE0FFF1F0590F491E02DC3
:061DD0000994F894FFCF16
:081DD6000A01000100000000F9
:00000001FF
